{
  "contractName": "DappToken",
  "abi": [
    {
      "inputs": [
        {
          "internalType": "uint256",
          "name": "_initialSupply",
          "type": "uint256"
        }
      ],
      "stateMutability": "nonpayable",
      "type": "constructor"
    },
    {
      "inputs": [],
      "name": "totalSupply",
      "outputs": [
        {
          "internalType": "uint256",
          "name": "",
          "type": "uint256"
        }
      ],
      "stateMutability": "view",
      "type": "function"
    },
    {
      "inputs": [
        {
          "internalType": "address",
          "name": "_to",
          "type": "address"
        },
        {
          "internalType": "uint256",
          "name": "_value",
          "type": "uint256"
        }
      ],
      "name": "transfer",
      "outputs": [
        {
          "internalType": "bool",
          "name": "success",
          "type": "bool"
        }
      ],
      "stateMutability": "nonpayable",
      "type": "function"
    },
    {
      "inputs": [
        {
          "internalType": "address",
          "name": "_spender",
          "type": "address"
        },
        {
          "internalType": "uint256",
          "name": "_value",
          "type": "uint256"
        }
      ],
      "name": "approve",
      "outputs": [
        {
          "internalType": "bool",
          "name": "success",
          "type": "bool"
        }
      ],
      "stateMutability": "nonpayable",
      "type": "function"
    },
    {
      "inputs": [
        {
          "internalType": "address",
          "name": "_from",
          "type": "address"
        },
        {
          "internalType": "address",
          "name": "_to",
          "type": "address"
        },
        {
          "internalType": "uint256",
          "name": "_value",
          "type": "uint256"
        }
      ],
      "name": "transferFrom",
      "outputs": [
        {
          "internalType": "bool",
          "name": "success",
          "type": "bool"
        }
      ],
      "stateMutability": "nonpayable",
      "type": "function"
    }
  ],
  "bytecode": "0x608060405234801561001057600080fd5b506040516102643803806102648339818101604052602081101561003357600080fd5b810190808051906020019092919050505050610210806100546000396000f3fe608060405234801561001057600080fd5b506004361061004c5760003560e01c8063095ea7b31461005157806318160ddd146100b557806323b872dd146100d3578063a9059cbb14610157575b600080fd5b61009d6004803603604081101561006757600080fd5b81019080803573ffffffffffffffffffffffffffffffffffffffff169060200190929190803590602001909291905050506101bb565b60405180821515815260200191505060405180910390f35b6100bd6101c3565b6040518082815260200191505060405180910390f35b61013f600480360360608110156100e957600080fd5b81019080803573ffffffffffffffffffffffffffffffffffffffff169060200190929190803573ffffffffffffffffffffffffffffffffffffffff169060200190929190803590602001909291905050506101c9565b60405180821515815260200191505060405180910390f35b6101a36004803603604081101561016d57600080fd5b81019080803573ffffffffffffffffffffffffffffffffffffffff169060200190929190803590602001909291905050506101d2565b60405180821515815260200191505060405180910390f35b600092915050565b60005481565b60009392505050565b60009291505056fea2646970667358221220fea6f15d19e267b8ba63c2088c02c3bcbe84182c5a96ab8798482486f33ef8d664736f6c63430007000033",
  "immutableReferences": {},
  "source": "// SPDX-License-Identifier: MIT\r\npragma solidity ^0.7.0;\r\n\r\ncontract DappToken {\r\n    //2\r\n    // string  public name = \"Gator Token\";\r\n    // string  public symbol = \"GATOR\";\r\n    // string  public standard = \"Gator Token v1.0\";\r\n    uint256 public totalSupply;\r\n\r\n    //3\r\n    // event Transfer(\r\n    //     address indexed _from,\r\n    //     address indexed _to,\r\n    //     uint256 _value\r\n    // );\r\n    \r\n    //4\r\n    // event Approval(\r\n    //     address indexed _owner,\r\n    //     address indexed _spender,\r\n    //     uint256 _value\r\n    // );\r\n    //1\r\n    // mapping(address => uint256) public balanceOf;\r\n    //4\r\n    // mapping(address => mapping(address => uint256)) public allowance;\r\n\r\n    //1\r\n    constructor (uint256 _initialSupply) {\r\n       //set the total number of tokens\r\n       //read the total number of tokens\r\n    }\r\n\r\n    //3\r\n    //Transfer\r\n    function transfer(address _to, uint256 _value) public returns (bool success) {\r\n        //exception if the account does not have enough\r\n        //return a boolean\r\n        //transfer event\r\n    }\r\n\r\n    //4\r\n    //approve\r\n    function approve(address _spender, uint256 _value) public returns (bool success) {\r\n      //allowance for the account \r\n      //emit approve event\r\n      //return a boolean\r\n    }\r\n    //5\r\n    //TransferFrom\r\n    function transferFrom(address _from, address _to, uint256 _value) public returns (bool success) {\r\n        //requiring _from has enough tokens\r\n        //requiring allowance is big enough\r\n        //Chnage the balance \r\n        //Update the allowance \r\n        //Transfer event\r\n        //return a boolean\r\n    }\r\n}\r\n",
  "sourcePath": "C:/New folder/ekleen ubuntu docs/Applications/UFL/DigitalWorlds/SolidityModules/Module2LiveCoding/gator_token/contracts/GatorTokenComments.sol",
  "compiler": {
    "name": "solc",
    "version": "0.7.0+commit.9e61f92b.Emscripten.clang"
  },
  "schemaVersion": "3.3.4",
  "updatedAt": "2022-10-06T23:14:24.550Z",
  "devdoc": {
    "kind": "dev",
    "methods": {},
    "version": 1
  },
  "userdoc": {
    "kind": "user",
    "methods": {},
    "version": 1
  }
}